{
  "contractName": "MlPlatformFactory",
  "abi": [
    {
      "inputs": [],
      "stateMutability": "nonpayable",
      "type": "constructor"
    },
    {
      "anonymous": false,
      "inputs": [
        {
          "indexed": true,
          "internalType": "address",
          "name": "owner",
          "type": "address"
        },
        {
          "indexed": false,
          "internalType": "address",
          "name": "mlPlatformAddress",
          "type": "address"
        },
        {
          "indexed": false,
          "internalType": "uint256",
          "name": "contractId",
          "type": "uint256"
        }
      ],
      "name": "MlPlatformCreated",
      "type": "event"
    },
    {
      "inputs": [],
      "name": "contractCount",
      "outputs": [
        {
          "internalType": "uint256",
          "name": "",
          "type": "uint256"
        }
      ],
      "stateMutability": "view",
      "type": "function",
      "constant": true
    },
    {
      "inputs": [
        {
          "internalType": "address",
          "name": "",
          "type": "address"
        }
      ],
      "name": "contractToIndex",
      "outputs": [
        {
          "internalType": "uint256",
          "name": "",
          "type": "uint256"
        }
      ],
      "stateMutability": "view",
      "type": "function",
      "constant": true
    },
    {
      "inputs": [
        {
          "internalType": "uint256",
          "name": "",
          "type": "uint256"
        }
      ],
      "name": "idToContract",
      "outputs": [
        {
          "internalType": "address",
          "name": "",
          "type": "address"
        }
      ],
      "stateMutability": "view",
      "type": "function",
      "constant": true
    },
    {
      "inputs": [],
      "name": "oracleAddress",
      "outputs": [
        {
          "internalType": "address",
          "name": "",
          "type": "address"
        }
      ],
      "stateMutability": "view",
      "type": "function",
      "constant": true
    },
    {
      "inputs": [
        {
          "internalType": "address",
          "name": "",
          "type": "address"
        },
        {
          "internalType": "uint256",
          "name": "",
          "type": "uint256"
        }
      ],
      "name": "ownerToContractList",
      "outputs": [
        {
          "internalType": "uint256",
          "name": "",
          "type": "uint256"
        }
      ],
      "stateMutability": "view",
      "type": "function",
      "constant": true
    },
    {
      "inputs": [],
      "name": "platformOwner",
      "outputs": [
        {
          "internalType": "address",
          "name": "",
          "type": "address"
        }
      ],
      "stateMutability": "view",
      "type": "function",
      "constant": true
    },
    {
      "inputs": [
        {
          "internalType": "string",
          "name": "_modelAddress",
          "type": "string"
        },
        {
          "internalType": "string",
          "name": "_testDataHash",
          "type": "string"
        },
        {
          "internalType": "string",
          "name": "_testDataLabelHash",
          "type": "string"
        }
      ],
      "name": "createMlPlatform",
      "outputs": [],
      "stateMutability": "payable",
      "type": "function",
      "payable": true
    },
    {
      "inputs": [
        {
          "internalType": "address",
          "name": "_newOwner",
          "type": "address"
        }
      ],
      "name": "transferPlatformOwnership",
      "outputs": [],
      "stateMutability": "nonpayable",
      "type": "function"
    },
    {
      "inputs": [
        {
          "internalType": "address",
          "name": "_owner",
          "type": "address"
        }
      ],
      "name": "getContractList",
      "outputs": [
        {
          "internalType": "uint256[]",
          "name": "",
          "type": "uint256[]"
        }
      ],
      "stateMutability": "view",
      "type": "function",
      "constant": true
    }
  ],
  "bytecode": "0x608060405273ac6c80b1afb4f2a4b1e663d58ec3332f8780e0a2600160006101000a81548173ffffffffffffffffffffffffffffffffffffffff021916908373ffffffffffffffffffffffffffffffffffffffff160217905550600060025534801561006a57600080fd5b50336000806101000a81548173ffffffffffffffffffffffffffffffffffffffff021916908373ffffffffffffffffffffffffffffffffffffffff160217905550613ae2806100ba6000396000f3fe608060405260043610620000925760003560e01c80635fddcc6011620000615780635fddcc60146200017d5780638736381a14620001c157806389954b9b14620001f15780638eaf1d9d1462000235578063a89ae4ba14620002555762000092565b8063046c155314620000975780634df8ccb114620000c557806350ded7ba14620000f5578063544d34a91462000139575b600080fd5b348015620000a457600080fd5b50620000c36004803603810190620000bd91906200072b565b62000285565b005b348015620000d257600080fd5b50620000dd62000359565b604051620000ec91906200076e565b60405180910390f35b3480156200010257600080fd5b506200012160048036038101906200011b91906200072b565b6200037d565b604051620001309190620007a6565b60405180910390f35b3480156200014657600080fd5b506200016560048036038101906200015f91906200072b565b62000395565b60405162000174919062000891565b60405180910390f35b3480156200018a57600080fd5b50620001a96004803603810190620001a39190620008e6565b6200042e565b604051620001b891906200076e565b60405180910390f35b348015620001ce57600080fd5b50620001d962000461565b604051620001e89190620007a6565b60405180910390f35b348015620001fe57600080fd5b506200021d600480360381019062000217919062000918565b62000467565b6040516200022c9190620007a6565b60405180910390f35b6200025360048036038101906200024d919062000ac1565b62000499565b005b3480156200026257600080fd5b506200026d6200067e565b6040516200027c91906200076e565b60405180910390f35b60008054906101000a900473ffffffffffffffffffffffffffffffffffffffff1673ffffffffffffffffffffffffffffffffffffffff163373ffffffffffffffffffffffffffffffffffffffff161462000316576040517f08c379a00000000000000000000000000000000000000000000000000000000081526004016200030d9062000c01565b60405180910390fd5b806000806101000a81548173ffffffffffffffffffffffffffffffffffffffff021916908373ffffffffffffffffffffffffffffffffffffffff16021790555050565b60008054906101000a900473ffffffffffffffffffffffffffffffffffffffff1681565b60056020528060005260406000206000915090505481565b6060600360008373ffffffffffffffffffffffffffffffffffffffff1673ffffffffffffffffffffffffffffffffffffffff1681526020019081526020016000208054806020026020016040519081016040528092919081815260200182805480156200042257602002820191906000526020600020905b8154815260200190600101908083116200040d575b50505050509050919050565b60046020528060005260406000206000915054906101000a900473ffffffffffffffffffffffffffffffffffffffff1681565b60025481565b600360205281600052604060002081815481106200048457600080fd5b90600052602060002001600091509150505481565b600034600160009054906101000a900473ffffffffffffffffffffffffffffffffffffffff1633868686604051620004d190620006a4565b620004e195949392919062000ca5565b6040518091039082f0905080158015620004ff573d6000803e3d6000fd5b5090506000819050600260008154809291906200051c9062000d46565b9190505550600360003373ffffffffffffffffffffffffffffffffffffffff1673ffffffffffffffffffffffffffffffffffffffff16815260200190815260200160002060025490806001815401808255809150506001900390600052602060002001600090919091909150558060046000600254815260200190815260200160002060006101000a81548173ffffffffffffffffffffffffffffffffffffffff021916908373ffffffffffffffffffffffffffffffffffffffff160217905550600254600560008373ffffffffffffffffffffffffffffffffffffffff1673ffffffffffffffffffffffffffffffffffffffff168152602001908152602001600020819055503373ffffffffffffffffffffffffffffffffffffffff167fbb38444e4ded095ca8063899fc2a710d4de79acf39ddbcc73f1aecd080d20534826002546040516200066f92919062000d93565b60405180910390a25050505050565b600160009054906101000a900473ffffffffffffffffffffffffffffffffffffffff1681565b612cec8062000dc183390190565b6000604051905090565b600080fd5b600080fd5b600073ffffffffffffffffffffffffffffffffffffffff82169050919050565b6000620006f382620006c6565b9050919050565b6200070581620006e6565b81146200071157600080fd5b50565b6000813590506200072581620006fa565b92915050565b600060208284031215620007445762000743620006bc565b5b6000620007548482850162000714565b91505092915050565b6200076881620006e6565b82525050565b60006020820190506200078560008301846200075d565b92915050565b6000819050919050565b620007a0816200078b565b82525050565b6000602082019050620007bd600083018462000795565b92915050565b600081519050919050565b600082825260208201905092915050565b6000819050602082019050919050565b620007fa816200078b565b82525050565b60006200080e8383620007ef565b60208301905092915050565b6000602082019050919050565b60006200083482620007c3565b620008408185620007ce565b93506200084d83620007df565b8060005b838110156200088457815162000868888262000800565b975062000875836200081a565b92505060018101905062000851565b5085935050505092915050565b60006020820190508181036000830152620008ad818462000827565b905092915050565b620008c0816200078b565b8114620008cc57600080fd5b50565b600081359050620008e081620008b5565b92915050565b600060208284031215620008ff57620008fe620006bc565b5b60006200090f84828501620008cf565b91505092915050565b60008060408385031215620009325762000931620006bc565b5b6000620009428582860162000714565b92505060206200095585828601620008cf565b9150509250929050565b600080fd5b600080fd5b6000601f19601f8301169050919050565b7f4e487b7100000000000000000000000000000000000000000000000000000000600052604160045260246000fd5b620009b48262000969565b810181811067ffffffffffffffff82111715620009d657620009d56200097a565b5b80604052505050565b6000620009eb620006b2565b9050620009f98282620009a9565b919050565b600067ffffffffffffffff82111562000a1c5762000a1b6200097a565b5b62000a278262000969565b9050602081019050919050565b82818337600083830152505050565b600062000a5a62000a5484620009fe565b620009df565b90508281526020810184848401111562000a795762000a7862000964565b5b62000a8684828562000a34565b509392505050565b600082601f83011262000aa65762000aa56200095f565b5b813562000ab884826020860162000a43565b91505092915050565b60008060006060848603121562000add5762000adc620006bc565b5b600084013567ffffffffffffffff81111562000afe5762000afd620006c1565b5b62000b0c8682870162000a8e565b935050602084013567ffffffffffffffff81111562000b305762000b2f620006c1565b5b62000b3e8682870162000a8e565b925050604084013567ffffffffffffffff81111562000b625762000b61620006c1565b5b62000b708682870162000a8e565b9150509250925092565b600082825260208201905092915050565b7f4f6e6c792074686520636f6e7472616374206f776e65722063616e2063616c6c60008201527f20746869732066756e6374696f6e2e0000000000000000000000000000000000602082015250565b600062000be9602f8362000b7a565b915062000bf68262000b8b565b604082019050919050565b6000602082019050818103600083015262000c1c8162000bda565b9050919050565b600081519050919050565b60005b8381101562000c4e57808201518184015260208101905062000c31565b8381111562000c5e576000848401525b50505050565b600062000c718262000c23565b62000c7d818562000b7a565b935062000c8f81856020860162000c2e565b62000c9a8162000969565b840191505092915050565b600060a08201905062000cbc60008301886200075d565b62000ccb60208301876200075d565b818103604083015262000cdf818662000c64565b9050818103606083015262000cf5818562000c64565b9050818103608083015262000d0b818462000c64565b90509695505050505050565b7f4e487b7100000000000000000000000000000000000000000000000000000000600052601160045260246000fd5b600062000d53826200078b565b91507fffffffffffffffffffffffffffffffffffffffffffffffffffffffffffffffff820362000d885762000d8762000d17565b5b600182019050919050565b600060408201905062000daa60008301856200075d565b62000db9602083018462000795565b939250505056fe60806040526001600e556001600f5560405162002cec38038062002cec833981810160405281019062000033919062000420565b6000341162000079576040517f08c379a0000000000000000000000000000000000000000000000000000000008152600401620000709062000566565b60405180910390fd5b846000806101000a81548173ffffffffffffffffffffffffffffffffffffffff021916908373ffffffffffffffffffffffffffffffffffffffff16021790555083600160006101000a81548173ffffffffffffffffffffffffffffffffffffffff021916908373ffffffffffffffffffffffffffffffffffffffff1602179055508260039080519060200190620001129291906200016e565b5081600490805190602001906200012b9291906200016e565b508060059080519060200190620001449291906200016e565b504360028190555034600681905550600060088190555060016007819055505050505050620005ec565b8280546200017c90620005b7565b90600052602060002090601f016020900481019282620001a05760008555620001ec565b82601f10620001bb57805160ff1916838001178555620001ec565b82800160010185558215620001ec579182015b82811115620001eb578251825591602001919060010190620001ce565b5b509050620001fb9190620001ff565b5090565b5b808211156200021a57600081600090555060010162000200565b5090565b6000604051905090565b600080fd5b600080fd5b600073ffffffffffffffffffffffffffffffffffffffff82169050919050565b60006200025f8262000232565b9050919050565b620002718162000252565b81146200027d57600080fd5b50565b600081519050620002918162000266565b92915050565b600080fd5b600080fd5b6000601f19601f8301169050919050565b7f4e487b7100000000000000000000000000000000000000000000000000000000600052604160045260246000fd5b620002ec82620002a1565b810181811067ffffffffffffffff821117156200030e576200030d620002b2565b5b80604052505050565b6000620003236200021e565b9050620003318282620002e1565b919050565b600067ffffffffffffffff821115620003545762000353620002b2565b5b6200035f82620002a1565b9050602081019050919050565b60005b838110156200038c5780820151818401526020810190506200036f565b838111156200039c576000848401525b50505050565b6000620003b9620003b38462000336565b62000317565b905082815260208101848484011115620003d857620003d76200029c565b5b620003e58482856200036c565b509392505050565b600082601f83011262000405576200040462000297565b5b815162000417848260208601620003a2565b91505092915050565b600080600080600060a086880312156200043f576200043e62000228565b5b60006200044f8882890162000280565b9550506020620004628882890162000280565b945050604086015167ffffffffffffffff8111156200048657620004856200022d565b5b6200049488828901620003ed565b935050606086015167ffffffffffffffff811115620004b857620004b76200022d565b5b620004c688828901620003ed565b925050608086015167ffffffffffffffff811115620004ea57620004e96200022d565b5b620004f888828901620003ed565b9150509295509295909350565b600082825260208201905092915050565b7f506c6561736520707574206465706f736974652e000000000000000000000000600082015250565b60006200054e60148362000505565b91506200055b8262000516565b602082019050919050565b6000602082019050818103600083015262000581816200053f565b9050919050565b7f4e487b7100000000000000000000000000000000000000000000000000000000600052602260045260246000fd5b60006002820490506001821680620005d057607f821691505b602082108103620005e657620005e562000588565b5b50919050565b6126f080620005fc6000396000f3fe60806040526004361061011f5760003560e01c80637816e2ed116100a0578063d094ae4111610064578063d094ae41146103bd578063df125333146103fa578063f07ff64114610423578063f2fde38b1461044e578063ff28bcc2146104775761011f565b80637816e2ed146102d45780638d8a55e7146102ff578063a89ae4ba1461033c578063c6ee20d214610367578063ce606ee0146103925761011f565b806348cd4cb1116100e757806348cd4cb1146102015780634c69c00f1461022c5780635841dcb31461025557806366666aa91461027e5780636a84a985146102a95761011f565b806323a21c4c146101245780633597d0e71461014057806338495cdf1461017d57806339588f10146101ba5780633c3ccc44146101f7575b600080fd5b61013e6004803603810190610139919061171e565b610481565b005b34801561014c57600080fd5b506101676004803603810190610162919061179d565b6106c8565b6040516101749190611852565b60405180910390f35b34801561018957600080fd5b506101a4600480360381019061019f919061179d565b610768565b6040516101b191906118b5565b60405180910390f35b3480156101c657600080fd5b506101e160048036038101906101dc919061179d565b61079b565b6040516101ee91906118df565b60405180910390f35b6101ff6107b3565b005b34801561020d57600080fd5b506102166108e3565b60405161022391906118df565b60405180910390f35b34801561023857600080fd5b50610253600480360381019061024e9190611926565b6108e9565b005b34801561026157600080fd5b5061027c60048036038101906102779190611953565b6109bc565b005b34801561028a57600080fd5b50610293610d1c565b6040516102a091906118df565b60405180910390f35b3480156102b557600080fd5b506102be610d22565b6040516102cb91906118df565b60405180910390f35b3480156102e057600080fd5b506102e9610d28565b6040516102f691906118df565b60405180910390f35b34801561030b57600080fd5b5061032660048036038101906103219190611926565b610d2e565b60405161033391906118df565b60405180910390f35b34801561034857600080fd5b50610351610d46565b60405161035e91906118b5565b60405180910390f35b34801561037357600080fd5b5061037c610d6a565b60405161038991906118df565b60405180910390f35b34801561039e57600080fd5b506103a7610d70565b6040516103b491906118b5565b60405180910390f35b3480156103c957600080fd5b506103e460048036038101906103df919061179d565b610d96565b6040516103f191906118df565b60405180910390f35b34801561040657600080fd5b50610421600480360381019061041c9190611ac9565b610dae565b005b34801561042f57600080fd5b50610438610fac565b60405161044591906118df565b60405180910390f35b34801561045a57600080fd5b5061047560048036038101906104709190611926565b610fb2565b005b61047f611086565b005b6001600754146104c6576040517f08c379a00000000000000000000000000000000000000000000000000000000081526004016104bd90611c26565b60405180910390fd5b60643411610509576040517f08c379a000000000000000000000000000000000000000000000000000000000815260040161050090611cb8565b60405180910390fd5b346008600082825461051b9190611d07565b92505081905550600080600a60003373ffffffffffffffffffffffffffffffffffffffff1673ffffffffffffffffffffffffffffffffffffffff1681526020019081526020016000205403610641573360096000600f54815260200190815260200160002060006101000a81548173ffffffffffffffffffffffffffffffffffffffff021916908373ffffffffffffffffffffffffffffffffffffffff160217905550600f54600a60003373ffffffffffffffffffffffffffffffffffffffff1673ffffffffffffffffffffffffffffffffffffffff168152602001908152602001600020819055506064600c6000600f54815260200190815260200160002081905550600f549050600f600081548092919061063790611d5d565b9190505550610684565b600a60003373ffffffffffffffffffffffffffffffffffffffff1673ffffffffffffffffffffffffffffffffffffffff1681526020019081526020016000205490505b34600d60008381526020019081526020016000208190555081600b600083815260200190815260200160002090805190602001906106c3929190611521565b505050565b600b60205280600052604060002060009150905080546106e790611dd4565b80601f016020809104026020016040519081016040528092919081815260200182805461071390611dd4565b80156107605780601f1061073557610100808354040283529160200191610760565b820191906000526020600020905b81548152906001019060200180831161074357829003601f168201915b505050505081565b60096020528060005260406000206000915054906101000a900473ffffffffffffffffffffffffffffffffffffffff1681565b600c6020528060005260406000206000915090505481565b6003600754146107f8576040517f08c379a00000000000000000000000000000000000000000000000000000000081526004016107ef90611e77565b60405180910390fd5b600160009054906101000a900473ffffffffffffffffffffffffffffffffffffffff1673ffffffffffffffffffffffffffffffffffffffff163373ffffffffffffffffffffffffffffffffffffffff1614610888576040517f08c379a000000000000000000000000000000000000000000000000000000000815260040161087f90611f09565b60405180910390fd5b600034116108cb576040517f08c379a00000000000000000000000000000000000000000000000000000000081526004016108c290611f75565b60405180910390fd5b34600681905550600160078190555043600281905550565b60025481565b600160009054906101000a900473ffffffffffffffffffffffffffffffffffffffff1673ffffffffffffffffffffffffffffffffffffffff163373ffffffffffffffffffffffffffffffffffffffff1614610979576040517f08c379a000000000000000000000000000000000000000000000000000000000815260040161097090611f09565b60405180910390fd5b806000806101000a81548173ffffffffffffffffffffffffffffffffffffffff021916908373ffffffffffffffffffffffffffffffffffffffff16021790555050565b60008054906101000a900473ffffffffffffffffffffffffffffffffffffffff1673ffffffffffffffffffffffffffffffffffffffff163373ffffffffffffffffffffffffffffffffffffffff161480610a635750600160009054906101000a900473ffffffffffffffffffffffffffffffffffffffff1673ffffffffffffffffffffffffffffffffffffffff163373ffffffffffffffffffffffffffffffffffffffff16145b80610aae57506000600a60003373ffffffffffffffffffffffffffffffffffffffff1673ffffffffffffffffffffffffffffffffffffffff1681526020019081526020016000205414155b610aed576040517f08c379a0000000000000000000000000000000000000000000000000000000008152600401610ae490612007565b60405180910390fd5b600160075414610b32576040517f08c379a0000000000000000000000000000000000000000000000000000000008152600401610b2990611c26565b60405180910390fd5b600160009054906101000a900473ffffffffffffffffffffffffffffffffffffffff1673ffffffffffffffffffffffffffffffffffffffff163373ffffffffffffffffffffffffffffffffffffffff161480610bd9575060008054906101000a900473ffffffffffffffffffffffffffffffffffffffff1673ffffffffffffffffffffffffffffffffffffffff163373ffffffffffffffffffffffffffffffffffffffff16145b15610c3357600a600254610bed9190611d07565b4311610c2e576040517f08c379a0000000000000000000000000000000000000000000000000000000008152600401610c2590612099565b60405180910390fd5b610d06565b600f600254610c429190611d07565b4311610c83576040517f08c379a0000000000000000000000000000000000000000000000000000000008152600401610c7a90612151565b60405180910390fd5b6000600a60003373ffffffffffffffffffffffffffffffffffffffff1673ffffffffffffffffffffffffffffffffffffffff1681526020019081526020016000205403610d05576040517f08c379a0000000000000000000000000000000000000000000000000000000008152600401610cfc906121e3565b60405180910390fd5b5b6002600781905550610d188282611131565b5050565b60065481565b600e5481565b600f5481565b600a6020528060005260406000206000915090505481565b60008054906101000a900473ffffffffffffffffffffffffffffffffffffffff1681565b60075481565b600160009054906101000a900473ffffffffffffffffffffffffffffffffffffffff1681565b600d6020528060005260406000206000915090505481565b60008054906101000a900473ffffffffffffffffffffffffffffffffffffffff1673ffffffffffffffffffffffffffffffffffffffff163373ffffffffffffffffffffffffffffffffffffffff1614610e3c576040517f08c379a0000000000000000000000000000000000000000000000000000000008152600401610e3390612275565b60405180910390fd5b600260075414610e81576040517f08c379a0000000000000000000000000000000000000000000000000000000008152600401610e7890612307565b60405180910390fd5b60005b8351811015610f4e57828181518110610ea057610e9f612327565b5b6020026020010151600c6000868481518110610ebf57610ebe612327565b5b60200260200101518152602001908152602001600020819055506000828281518110610eee57610eed612327565b5b60200260200101511315610f3b57610f3a848281518110610f1257610f11612327565b5b6020026020010151838381518110610f2d57610f2c612327565b5b602002602001015161130e565b5b8080610f4690611d5d565b915050610e84565b508360039080519060200190610f65929190611521565b507f954d615937b753cf2f287614528733409a3de499a41a341cd1dbf43b24ab0c0f85604051610f9591906118df565b60405180910390a160036007819055505050505050565b60085481565b600160009054906101000a900473ffffffffffffffffffffffffffffffffffffffff1673ffffffffffffffffffffffffffffffffffffffff163373ffffffffffffffffffffffffffffffffffffffff1614611042576040517f08c379a000000000000000000000000000000000000000000000000000000000815260040161103990611f09565b60405180910390fd5b80600160006101000a81548173ffffffffffffffffffffffffffffffffffffffff021916908373ffffffffffffffffffffffffffffffffffffffff16021790555050565b600160009054906101000a900473ffffffffffffffffffffffffffffffffffffffff1673ffffffffffffffffffffffffffffffffffffffff163373ffffffffffffffffffffffffffffffffffffffff1614611116576040517f08c379a000000000000000000000000000000000000000000000000000000000815260040161110d90611f09565b60405180910390fd5b34600660008282546111289190611d07565b92505081905550565b6000600e5490507faa6d410a17ec6f559fb71643fa84c722d4a372374e7227298461831a170bfbc18160065460405161116b929190612356565b60405180910390a17fee4d138a9a331ee506450fae35e80901dc1d1a0f88d7fe870fabfc6fe8dcdc508160038585600460056040516111af96959493929190612414565b60405180910390a16000600190505b600f548110156112b9576040518060200160405280600081525080519060200120600b60008381526020019081526020016000206040516111ff9190612537565b6040518091039020146112a6577f3910115e651db63dac5c27949180dc96d86ef98258722028d7794c96cd9aa48d8282600b6000858152602001908152602001600020600c600086815260200190815260200160002054604051611266949392919061254e565b60405180910390a160405180602001604052806000815250600b600083815260200190815260200160002090805190602001906112a4929190611521565b505b80806112b190611d5d565b9150506111be565b507f93a213c4c585fbfd035779d3ae8b51184493956fde5f124674c38a9927e389f7816040516112e991906118df565b60405180910390a1600e600081548092919061130490611d5d565b9190505550505050565b806006541015611353576040517f08c379a000000000000000000000000000000000000000000000000000000000815260040161134a9061260c565b60405180910390fd5b8060066000828254611365919061262c565b925050819055506009600083815260200190815260200160002060009054906101000a900473ffffffffffffffffffffffffffffffffffffffff1673ffffffffffffffffffffffffffffffffffffffff166108fc6001836113c69190612660565b9081150290604051600060405180830381858888f193505050501580156113f1573d6000803e3d6000fd5b507f4d7828f2aa36030cc63cdea79ec646099aa121d019f1a90edb55078939fb84ea8282604051611423929190612356565b60405180910390a16009600083815260200190815260200160002060009054906101000a900473ffffffffffffffffffffffffffffffffffffffff1673ffffffffffffffffffffffffffffffffffffffff166108fc600d6000858152602001908152602001600020549081150290604051600060405180830381858888f193505050501580156114b7573d6000803e3d6000fd5b506000600d6000848152602001908152602001600020819055507f43f1a62374b03888ce7ed69d5599d19e6aa7c4e5863ab594bdaae22bd3637aae82600d600085815260200190815260200160002054604051611515929190612356565b60405180910390a15050565b82805461152d90611dd4565b90600052602060002090601f01602090048101928261154f5760008555611596565b82601f1061156857805160ff1916838001178555611596565b82800160010185558215611596579182015b8281111561159557825182559160200191906001019061157a565b5b5090506115a391906115a7565b5090565b5b808211156115c05760008160009055506001016115a8565b5090565b6000604051905090565b600080fd5b600080fd5b600080fd5b600080fd5b6000601f19601f8301169050919050565b7f4e487b7100000000000000000000000000000000000000000000000000000000600052604160045260246000fd5b61162b826115e2565b810181811067ffffffffffffffff8211171561164a576116496115f3565b5b80604052505050565b600061165d6115c4565b90506116698282611622565b919050565b600067ffffffffffffffff821115611689576116886115f3565b5b611692826115e2565b9050602081019050919050565b82818337600083830152505050565b60006116c16116bc8461166e565b611653565b9050828152602081018484840111156116dd576116dc6115dd565b5b6116e884828561169f565b509392505050565b600082601f830112611705576117046115d8565b5b81356117158482602086016116ae565b91505092915050565b600060208284031215611734576117336115ce565b5b600082013567ffffffffffffffff811115611752576117516115d3565b5b61175e848285016116f0565b91505092915050565b6000819050919050565b61177a81611767565b811461178557600080fd5b50565b60008135905061179781611771565b92915050565b6000602082840312156117b3576117b26115ce565b5b60006117c184828501611788565b91505092915050565b600081519050919050565b600082825260208201905092915050565b60005b838110156118045780820151818401526020810190506117e9565b83811115611813576000848401525b50505050565b6000611824826117ca565b61182e81856117d5565b935061183e8185602086016117e6565b611847816115e2565b840191505092915050565b6000602082019050818103600083015261186c8184611819565b905092915050565b600073ffffffffffffffffffffffffffffffffffffffff82169050919050565b600061189f82611874565b9050919050565b6118af81611894565b82525050565b60006020820190506118ca60008301846118a6565b92915050565b6118d981611767565b82525050565b60006020820190506118f460008301846118d0565b92915050565b61190381611894565b811461190e57600080fd5b50565b600081359050611920816118fa565b92915050565b60006020828403121561193c5761193b6115ce565b5b600061194a84828501611911565b91505092915050565b6000806040838503121561196a576119696115ce565b5b600083013567ffffffffffffffff811115611988576119876115d3565b5b611994858286016116f0565b925050602083013567ffffffffffffffff8111156119b5576119b46115d3565b5b6119c1858286016116f0565b9150509250929050565b600067ffffffffffffffff8211156119e6576119e56115f3565b5b602082029050602081019050919050565b600080fd5b6000819050919050565b611a0f816119fc565b8114611a1a57600080fd5b50565b600081359050611a2c81611a06565b92915050565b6000611a45611a40846119cb565b611653565b90508083825260208201905060208402830185811115611a6857611a676119f7565b5b835b81811015611a915780611a7d8882611a1d565b845260208401935050602081019050611a6a565b5050509392505050565b600082601f830112611ab057611aaf6115d8565b5b8135611ac0848260208601611a32565b91505092915050565b600080600080600060a08688031215611ae557611ae46115ce565b5b6000611af388828901611788565b955050602086013567ffffffffffffffff811115611b1457611b136115d3565b5b611b20888289016116f0565b945050604086013567ffffffffffffffff811115611b4157611b406115d3565b5b611b4d88828901611a9b565b935050606086013567ffffffffffffffff811115611b6e57611b6d6115d3565b5b611b7a88828901611a9b565b925050608086013567ffffffffffffffff811115611b9b57611b9a6115d3565b5b611ba788828901611a9b565b9150509295509295909350565b7f54686520636f6e7472616374206973206e6f7420696e20746865207375626d6960008201527f7373696f6e2073746167652e0000000000000000000000000000000000000000602082015250565b6000611c10602c836117d5565b9150611c1b82611bb4565b604082019050919050565b60006020820190508181036000830152611c3f81611c03565b9050919050565b7f506c6561736520707574206465706f73697465206174206c656173742031303060008201527f207765692e000000000000000000000000000000000000000000000000000000602082015250565b6000611ca26025836117d5565b9150611cad82611c46565b604082019050919050565b60006020820190508181036000830152611cd181611c95565b9050919050565b7f4e487b7100000000000000000000000000000000000000000000000000000000600052601160045260246000fd5b6000611d1282611767565b9150611d1d83611767565b9250827fffffffffffffffffffffffffffffffffffffffffffffffffffffffffffffffff03821115611d5257611d51611cd8565b5b828201905092915050565b6000611d6882611767565b91507fffffffffffffffffffffffffffffffffffffffffffffffffffffffffffffffff8203611d9a57611d99611cd8565b5b600182019050919050565b7f4e487b7100000000000000000000000000000000000000000000000000000000600052602260045260246000fd5b60006002820490506001821680611dec57607f821691505b602082108103611dff57611dfe611da5565b5b50919050565b7f5468652063757272656e7420726f756e64206973206e6f7420636f6d706c657460008201527f65642e0000000000000000000000000000000000000000000000000000000000602082015250565b6000611e616023836117d5565b9150611e6c82611e05565b604082019050919050565b60006020820190508181036000830152611e9081611e54565b9050919050565b7f4f6e6c792074686520636f6e7472616374206f776e65722063616e2063616c6c60008201527f20746869732066756e6374696f6e2e0000000000000000000000000000000000602082015250565b6000611ef3602f836117d5565b9150611efe82611e97565b604082019050919050565b60006020820190508181036000830152611f2281611ee6565b9050919050565b7f506c6561736520707574206465706f736974652e000000000000000000000000600082015250565b6000611f5f6014836117d5565b9150611f6a82611f29565b602082019050919050565b60006020820190508181036000830152611f8e81611f52565b9050919050565b7f4f6e6c7920746865207061727469636970616e74732063616e2063616c6c207460008201527f6869732066756e6374696f6e2e00000000000000000000000000000000000000602082015250565b6000611ff1602d836117d5565b9150611ffc82611f95565b604082019050919050565b6000602082019050818103600083015261202081611fe4565b9050919050565b7f546865207375626d697373696f6e20706572696f6420686173206e6f7420656e60008201527f646564207965742e000000000000000000000000000000000000000000000000602082015250565b60006120836028836117d5565b915061208e82612027565b604082019050919050565b600060208201905081810360008301526120b281612076565b9050919050565b7f546865207061727469636970616e74732063616e206f6e6c792063616c6c207460008201527f6869732066756e6374696f6e20616674657220313520626c6f636b732069662060208201527f746865206f776e657220686173206e6f742063616c6c65642069742e00000000604082015250565b600061213b605c836117d5565b9150612146826120b9565b606082019050919050565b6000602082019050818103600083015261216a8161212e565b9050919050565b7f4f6e6c792074686520636c69656e742063616e2063616c6c207468697320667560008201527f6e6374696f6e2e00000000000000000000000000000000000000000000000000602082015250565b60006121cd6027836117d5565b91506121d882612171565b604082019050919050565b600060208201905081810360008301526121fc816121c0565b9050919050565b7f4f6e6c7920746865206f7261636c652063616e2063616c6c207468697320667560008201527f6e6374696f6e2e00000000000000000000000000000000000000000000000000602082015250565b600061225f6027836117d5565b915061226a82612203565b604082019050919050565b6000602082019050818103600083015261228e81612252565b9050919050565b7f54686520636f6e7472616374206973206e6f7420696e20746865206576616c7560008201527f6174696f6e2073746167652e0000000000000000000000000000000000000000602082015250565b60006122f1602c836117d5565b91506122fc82612295565b604082019050919050565b60006020820190508181036000830152612320816122e4565b9050919050565b7f4e487b7100000000000000000000000000000000000000000000000000000000600052603260045260246000fd5b600060408201905061236b60008301856118d0565b61237860208301846118d0565b9392505050565b60008190508160005260206000209050919050565b600081546123a181611dd4565b6123ab81866117d5565b945060018216600081146123c657600181146123d85761240b565b60ff198316865260208601935061240b565b6123e18561237f565b60005b83811015612403578154818901526001820191506020810190506123e4565b808801955050505b50505092915050565b600060c08201905061242960008301896118d0565b818103602083015261243b8188612394565b9050818103604083015261244f8187611819565b905081810360608301526124638186611819565b905081810360808301526124778185612394565b905081810360a083015261248b8184612394565b9050979650505050505050565b600081905092915050565b60008190508160005260206000209050919050565b600081546124c581611dd4565b6124cf8186612498565b945060018216600081146124ea57600181146124fb5761252e565b60ff1983168652818601935061252e565b612504856124a3565b60005b8381101561252657815481890152600182019150602081019050612507565b838801955050505b50505092915050565b600061254382846124b8565b915081905092915050565b600060808201905061256360008301876118d0565b61257060208301866118d0565b81810360408301526125828185612394565b905061259160608301846118d0565b95945050505050565b7f4e6f7420656e6f7567682066756e647320696e2074686520726577617264207060008201527f6f6f6c2e00000000000000000000000000000000000000000000000000000000602082015250565b60006125f66024836117d5565b91506126018261259a565b604082019050919050565b60006020820190508181036000830152612625816125e9565b9050919050565b600061263782611767565b915061264283611767565b92508282101561265557612654611cd8565b5b828203905092915050565b600061266b82611767565b915061267683611767565b9250817fffffffffffffffffffffffffffffffffffffffffffffffffffffffffffffffff04831182151516156126af576126ae611cd8565b5b82820290509291505056fea264697066735822122069ba53354770af005670a2e43e4af6e87f77893d0e9a824524dd86541233734064736f6c634300080d0033a2646970667358221220cd9c6d11e77c48119cd6722fdb60f6799bc4b2fa675cfecdcc08b1682ec1247364736f6c634300080d0033",
  "immutableReferences": {},
  "source": "// SPDX-License-Identifier: MIT\npragma solidity ^0.8.0;\nimport \"./MlContract.sol\";\n\ncontract MlPlatformFactory {\n    // Record the deployed MlPlatforms\n    address public platformOwner;\n    address public oracleAddress = 0xAc6c80B1AFb4F2a4B1E663D58EC3332F8780e0a2; // For loacl testnet environment TODO: Change for testnet\n    uint256 public contractCount = 0;\n    mapping(address => uint256[]) public ownerToContractList;\n    mapping(uint256 => address) public idToContract;\n    mapping(address => uint256) public contractToIndex;\n\n    // Initialize the contract which will set the \n    constructor() {\n        platformOwner = msg.sender;\n    }\n\n    // Modifiers to used\n    modifier onlyOwner() {\n        require(msg.sender == platformOwner, \"Only the contract owner can call this function.\");\n        _;\n    }\n\n    // Event to emit when a new MlPlatform is created for off-chain Oracle to listen to\n    event MlPlatformCreated(address indexed owner, address mlPlatformAddress, uint256 contractId);\n\n    // Function to create a new MlPlatform\n    function createMlPlatform(\n        string memory _modelAddress,\n        string memory _testDataHash,\n        string memory _testDataLabelHash\n    ) public payable {\n        MlContract newContract = (new MlContract){ value : msg.value }(oracleAddress, msg.sender, _modelAddress, _testDataHash, _testDataLabelHash);\n        address contractAdd = address(newContract);\n        contractCount++;\n        ownerToContractList[msg.sender].push(contractCount);\n        idToContract[contractCount] = contractAdd;\n        contractToIndex[contractAdd] = contractCount;\n        emit MlPlatformCreated(msg.sender, contractAdd, contractCount);\n    }\n\n    function transferPlatformOwnership(address _newOwner) public onlyOwner {\n        platformOwner = _newOwner;\n    }\n\n    function getContractList(address _owner) public view returns (uint256[] memory) {\n        return ownerToContractList[_owner];\n    }\n}\n",
  "sourcePath": "/Users/lokki/Downloads/FYP/fyp_project/ml-platform-contract/contracts/MlPlatformFactory.sol",
  "compiler": {
    "name": "solc",
    "version": "0.8.13+commit.abaa5c0e.Emscripten.clang"
  },
  "schemaVersion": "3.4.16",
  "updatedAt": "2024-04-05T05:32:24.006Z",
  "networkType": "ethereum",
  "devdoc": {
    "kind": "dev",
    "methods": {},
    "version": 1
  },
  "userdoc": {
    "kind": "user",
    "methods": {},
    "version": 1
  }
}